:020000040800F2
:10000000101A002001010008194200085B3D000899
:10001000154200082D030008C14800080000000038
:10002000000000000000000000000000FD43000888
:10003000690F0008000000009542000865440008B0
:100040001B0100081B0100081B0100081B01000820
:100050001B0100081B0100081B0100081B01000810
:100060001B0100081B0100081B0100081B01000800
:100070001B0100081B0100081B0100081B010008F0
:100080001B0100081B0100081B0100081B010008E0
:100090001B0100081B0100081B0100081B010008D0
:1000A0001B0100081B0100081B0100081B010008C0
:1000B0001B0100081B0100081B0100081B010008B0
:1000C0001B0100081B0100081B0100081B010008A0
:1000D0001B01000819480008294800083948000891
:1000E0001B0100081B0100081B010008DFF80CD0F1
:1000F00000F09AF800480047B54E0008101A00209A
:100100000648804706480047FEE7FEE7FEE7FEE7B1
:10011000FEE7FEE7FEE7FEE7FEE7FEE7F94400083C
:10012000ED000008202A04DB203A21FA02F0002129
:10013000704721FA02F3D040C2F1200291400843F7
:100140001946704740EA01039B0703D009E008C93C
:10015000121F08C0042AFAD203E011F8013B00F88C
:10016000013B521EF9D27047D2B201E000F8012BD8
:10017000491EFBD270470022F6E710B513460A4627
:1001800004461946FFF7F0FF204610BD421C10F848
:10019000011B0029FBD1801A704730B504460020AE
:1001A000034600E05B1C934203D2E05CCD5C401B45
:1001B000F8D030BD034611F8012B00F8012B002ABE
:1001C000F9D1184670472DE9F05F054600209246A8
:1001D0009B4688460646814640241BE02846414609
:1001E00047462246FFF79EFF53465A46C01A9141A2
:1001F00010D311461846224600F028F82D1A67EB56
:1002000001084F4622460120002100F01FF817EB9D
:1002100000094E41201EA4F10104DFDC48463146AE
:100220002A464346BDE8F09F064C074D06E0E068CD
:1002300040F0010394E8070098471034AC42F6D32D
:10024000FFF758FF284F0008484F0008202A04DB1A
:10025000203A00FA02F1002070479140C2F12003D9
:1002600020FA03F319439040704770B50446002507
:100270002068806800F00100F0B12068806820F0FC
:1002800001002168886002F029FA05460EE002F0BC
:1002900025FA401B022809D9A06A40F01000A0628C
:1002A000E06A40F00100E062012070BD20688068D3
:1002B00000F001000028EAD10020F6E700214160AB
:1002C0008160C160016070470246D2E90103984233
:1002D00001D100207047D2E90003C05C087050686B
:1002E000401C5060D3685068984201D9002050608B
:1002F0000120EFE710B502469068401CD368B0FBC0
:10030000F3F403FB14005368984201D1002010BDA0
:1003100093681068C1549068401C9060D2E9020351
:10032000984201D9002090600120F0E700BFFEE76D
:1003300013B50446012C05D19DF804100C48FFF7B5
:10034000D9FF14E0032C0AD19DF804100848103896
:10035000FFF7D0FF012101A800F062FE07E0022CA8
:1003600005D19DF8041002482038FFF7C3FF1CBDDB
:100370003014002038B50446022C13D169460B48CE
:10038000FFF7A2FF28B19DF80000094909684860FD
:100390000BE007480068C06820F080000449096845
:1003A000C86002E0032C00D000BF38BD401400201C
:1003B0006001002010B506220AA10C48FFF7EDFEEF
:1003C00070B905220AA10C48FFF7E7FE40B90A48B8
:1003D0000122D0F80011401D01F0FAFD0749086024
:1003E00010BD000041542B4353510000E001002098
:1003F0002B4353513A000000600200200C00002003
:1004000010B586B0FA4890F8080109287ED1F9485D
:10041000007850B10222F8A1F548FFF7BEFE20B9DE
:100420000020F449087006B010BD0222F3A1F04884
:10043000FFF7B3FE40B90320F14908700120F149EC
:1004400008700020F0490860ED480078801E1B28E5
:100450007ED2DFE800F00E0F1F2F5F80F2F1F07DFB
:10046000EFEEEDECEBEAE9E8E77D7DE6E5E4E3E2DB
:10047000E10000BF0222E0A1DD48FFF78EFE40B997
:100480000420DF4908700120DE4908700020DE49A1
:100490000860C7E30222D8A1D548FFF77EFE40B925
:1004A0000520D74908700120D64908700020D64998
:1004B0000860B7E3D5480078B0B90C22D4A1CC4885
:1004C000FFF76BFE10B90120D04908700E22D4A1AD
:1004D000C748FFF762FEE0B90120CA4908704FF42F
:1004E000FA60C949086014E0C8480078012810D1B2
:1004F0000222C1A1BE48FFF750FE50B90620C049F4
:1005000008700120BF490870002000E091E3BE4957
:10051000086087E30722C6A1B548FFF73EFEC8B9C9
:100520000720B74908700120B64908700020B64975
:1005300008600A208DF800001422AD4908310DF141
:100540000100FFF7FFFD1521684603F059FF00E0A9
:1005500065E300BF66E30222B7A1A548FFF71DFED1
:1005600000286BD10522B5A1A148FFF716FE18B9E6
:100570000020B44908706BE00522B3A19C48FFF746
:100580000CFE18B90020AF49087061E00522B0A147
:100590009748FFF702FE18B90020AA49087057E0F3
:1005A0000522ADA19248FFF7F8FD18B90020A54932
:1005B00008704DE00522AAA18D48FFF7EEFD18B99D
:1005C0000120A049087043E00522A7A18848FFF751
:1005D000E4FD18B901209B49087039E00522A4A167
:1005E0008348FFF7DAFD18B90120964908702FE01B
:1005F0000522A1A17E48FFF7D0FD18B9022091493C
:10060000087025E005229EA17948FFF7C6FDB0B924
:1006100002208C4908701BE0ECE2C0E29DE283E21C
:1006200069E24DE220E21EE21CE227E2E0E171E134
:100630005EE14CE13AE164E094E022E020E0052252
:1006400091A16B48FFF7A9FD10B902207D49087000
:100650000A206B49087001206A4908704FF47A70CB
:10066000694908600C208DF808000F2260490DF1DF
:100670000900FFF767FD102102A803F0C1FE00BFCB
:10068000D0E26248007840BB062281A15848FFF7BB
:1006900084FD08BB56480222D0F80011C01D01F0AD
:1006A00097FC012808D052480222D0F80011C01D42
:1006B00001F08EFC052803D101205449087006E0A2
:1006C00001205049087041F288304F490860FF22EC
:1006D0000A214748FFF748FD12E04C4800780128FE
:1006E0000ED1022244A14248FFF757FD40B909202C
:1006F00043490870012043490870002042490860BE
:1007000090E242480078C8B9072263A13848FFF751
:1007100044FD30BB36480222D0F80011C01D01F064
:1007200057FC012802D1394908701AE001203549E7
:1007300008704FF4FA603449086012E033480078DA
:1007400001280ED102222CA12948FFF726FD40B92D
:1007500009202B49087001202A49087000202A49E5
:1007600008605FE22948007848BB05224CA1204878
:10077000FFF713FD10BB1E480122D0F80011801DA9
:1007800001F026FC4849086008460068632812D238
:100790000846006809280ED901201A4908708020EF
:1007A0008DF81400404800788DF81500022105A846
:1007B00003F026FE00BF01201449087017E013481B
:1007C0000078012813D102220BA10948FFF7E5FCAC
:1007D00068B90C480078012806D10C200849087037
:1007E0004FF47A700849086001200649087019E240
:1007F00060020020440000204F4B0000524459008A
:1008000038000020090000203C0000200A000020E1
:100810002B4350494E3A20524541445900000000B4
:100820002B434D45204552524F523A203130000063
:100830002B51434349443A003436000034363030BB
:100840003000000008000020343630303200000054
:100850003436303034000000343630303700000099
:10086000343630303100000034363030360000008D
:100870003436303039000000343630303300000078
:10088000343630303500000034363031310000006D
:100890002B435245473A00002B43455245473A0007
:1008A0002B4353513A0000000C0000200222AFF20B
:1008B000B801E148FFF771FC40B90D20DF4908702D
:1008C0000120DF4908706420DE490860AAE10222A5
:1008D000AFF2DC01D848FFF760FC40B90E20D749E1
:1008E00008700120D64908706420D649086099E153
:1008F0000222AFF2FC01D048FFF74FFC48B90F20AD
:10090000CE4908700120CE4908704FF47A70CD4965
:10091000086087E10A22CCA1C748FFF73EFCE8BB8C
:100920001020C64908700120C54908700020C5493B
:1009300008600D208DF8080001221021BE480E30FD
:1009400001F046FBC0B28DF8090002221021BA481E
:100950000E3001F03DFBC0B28DF80A0003221021D9
:10096000B5480E3001F034FBC0B28DF80B00042204
:100970001021B1480E3001F02BFBC0B28DF80C00F5
:100980002C221421AC480E3001F0DCF9401CC4B21A
:10099000A9490E3108190122102100E027E001F0D9
:1009A00017FBC0B28DF80D00A3490E3108190222C1
:1009B000102101F00DFBC0B28DF80E009E490E31E2
:1009C00008190322102101F003FBC0B28DF80F00BB
:1009D00099490E3108190422102101F0F9FAC0B228
:1009E0008DF81000092102A803F00AFD00BF19E1EB
:1009F000082298A19048FFF7D0FB48BB8E480222FE
:100A0000D0F80011083001F0E3FA98B911208B49B1
:100A1000087001208A4908704FF47A70894908608B
:100A200001208749087020200590012105A803F0C6
:100A3000E7FC16E000208149087001208049087019
:100A400040F6B8307F49086001208549087008E009
:100A5000052284A17848FFF7A0FB10B964207949EA
:100A60000860DFE0DEE0DDE0072280A17248FFF7EA
:100A700094FB10B9112071490870D3E007227DA1C1
:100A80006D48FFF78AFB30B901F028F84FF47A700F
:100A90006C49086013E0062278A16748FFF77DFBE8
:100AA00068B96548D0F80001811F01226248801DA5
:100AB00001F08EFA73490860002073490860B1E0C4
:100AC0000222AFF2CC215C48FFF767FB90B96F4878
:100AD000007830B9012000F051FE01206B49087008
:100AE00002E018205549087001205549087064201B
:100AF0005449086096E00A2265A14F48FFF74DFB74
:100B000088B901204E4908704B480122D0F80011E5
:100B10000A3001F05DFA30B91920484908704FF4E5
:100B20007A70484908607DE009225CA14248FFF7DD
:100B300034FB88B90120424908703F480222D0F8AE
:100B40000011093001F044FA30B91A203B4908700D
:100B50004FF47A703B49086064E00A2252A136489B
:100B6000FFF71BFBD0B934480122D0F800110A303E
:100B700001F02EFA90B930480222D0F800110A3064
:100B800001F026FA4B4908601B202C49087001200F
:100B90002B4908704FF47A702A49086042E0072216
:100BA00045A12548FFF7F9FA38B945480068454995
:100BB00008600020444908601BE0092243A11E4848
:100BC000FFF7EBFAA8B9444800683D4909680844B2
:100BD000414908600846006836490968884202D3DE
:100BE0001C20164908706420164908600120144929
:100BF000087017E00B2239A10F48FFF7CEFA68B949
:100C000001200F49087041F288300E4908603648CB
:100C100000780A49087001203449087002E0FFF7A3
:100C2000C9FB00BF00BF0020034981F80801C1F8DB
:100C3000000100BFFFF7F7BB600200203800002072
:100C4000090000203C0000202B5149444E534346EC
:100C5000473A00002B51494F50454E3A00000000E2
:100C6000440000204552524F5200000053454E446C
:100C7000204F4B002B51495552433A002B514952BA
:100C8000443A00002C000020280000200A00002028
:100C90002B514654504F50454E3A00002B5146546C
:100CA000504357443A0000002B5146545053495A80
:100CB000453A000018000020434F4E4E4543540073
:100CC000200000201C000020140000202B5146545E
:100CD000504745543A000000240000202B51465450
:100CE00050434C4F53453A003A0000205400002036
:100CF0007CB50446C4EB041000EB80005D4901EBB9
:100D00008000D0F82001152801D201207CBDC4EB61
:100D1000041000EB8000574901EB80005649086041
:100D2000084600680078682876D108460068C079CF
:100D30006828F9D108460068817C4F480068C07C6B
:100D400001EB00254CF25230854225D14A4800681B
:100D5000407DFF2802D100F079F988E01E22464844
:100D6000016815314548FFF7EDF91E224248016838
:100D700033314348FFF7E6F91E223F4801685131FD
:100D80004048FFF7DFF940493B4800685B30426963
:100D90000A60008B88806AE04CF25330854246D16D
:100DA00035480068007E34490968C97DCDE90010E6
:100DB00031480068837D30480068427D33A1364861
:100DC00003F01EFE2C480068817E2B480068407EA0
:100DD0004FF4807202FB0010304908602648026818
:100DE0001B322FA12F4803F00BFE234802683B3231
:100DF0002BA12D4803F004FE2B4B2A4A27480168FB
:100E0000254800F0A1FE152807D122461A4801689E
:100E1000CA2000F09BF82AE027E022461648016825
:100E20008A2000F093F80020204908701FE04AF65D
:100E3000F020854217D11E4800681E490968401AF3
:100E4000802808D91B48006880301A4908600120B2
:100E5000194908700BE01648006816490860002020
:100E60001249087003E0012050E701204EE70020FE
:100E70004CE70000E00D002050000020640000203E
:100E8000D2120020F01200208200002025642E25BE
:100E9000642E25642E256400901200204C00002052
:100EA00025730000A0120020C11200205400002071
:100EB0005800002060000020550000202DE9F0417E
:100EC00004460F46607AA17A4FF4807202FB01005B
:100ED00000F10A054FF00008002604E0A05D404440
:100EE00000F0FF08761C681C8642F7D3601980F872
:100EF00001801620611988704FB90A210CA000F0FA
:100F00008FF8E81C81B2204600F030F80EE00E2188
:100F10000AA000F085F8E81C81B2204600F026F80F
:100F2000E81C82B22146012003F08EFCBDE8F0816E
:100F300044656275672041636B3A000053656E64D7
:100F4000546F486F73745B635D3A000070B506467A
:100F50000C46154626720A2060720020A0722946AF
:100F60002046FFF7ABFF70BD704700007CB504461C
:100F70000D4609E022780BA1684603F041FD0321EC
:100F8000684600F04DF8641C2800A5F101018DB2FF
:100F9000F0D106A1684603F033FD0221684600F057
:100FA0003FF87CBD25303258200000000D0A0000BB
:100FB0007CB505460E4626E0287804110A2C05DA91
:100FC00004F13000C0B28DF8000004E004F13700F5
:100FD000C0B28DF80000287800F00F040A2C05DA62
:100FE00004F13000C0B28DF8010004E004F13700D4
:100FF000C0B28DF8010020208DF802000321684660
:1010000000F00EF86D1C3000A6F101018EB2D3D1B4
:10101000022102A000F004F87CBD00000D0A0000CF
:101020000CE00278084B1B685A60401C00BF064A5F
:1010300012681268C2F3C012002AF8D00A00A1F1A7
:10104000010399B2EDD170476001002010B500F0A6
:101050008BFC16200149087010BD000038000020EC
:1010600038B5EF48007811280FD0EE48006828B155
:10107000EC480068401EEB49086009E00020E849A0
:101080000870E948E749086002E0E748E549086078
:10109000E648006828B1E5480068401EE34908605A
:1010A000BDE1E348007828B9E248006810B90020A3
:1010B000DB490870E0480078D9490978884217D19F
:1010C000DC48006828B1DB480068401ED949086048
:1010D0001BE0D34800780B2806D0D14800781128AF
:1010E00002D00020CE4908700A20D24908600CE0E6
:1010F000CB480078D04908700A20CE490860CE4815
:101100000078082801D13C200860C54800781D28D7
:1011100078D2DFE800F00F3B4957616B788490A8E4
:101120009CB4B5C1CDD9F0EEFFECEB7777EAE9E8F6
:10113000E7E6E500012000F073FD6420BB4908608C
:101140000120BB490870B6490870BCA1BE4803F035
:1011500057FCBD48FFF71AF884B22246BA4902206C
:1011600003F072FB40208DF80000B84800788DF83D
:101170000100B64840788DF80200B44880788DF8B8
:1011800003000421684603F03BF947E1002000F02A
:1011900047FD4FF49670A54908600120A4490870E6
:1011A00002209F49087039E1012000F039FD42F228
:1011B00010709E49086000209D49087003209849DE
:1011C00008702BE100F01EFA40F2DC5097490860ED
:1011D00000209749087021E100F0A2FA4FF4FA705C
:1011E0009249086000209249087017E100F050FA17
:1011F0004FF4FA608D4908600020954908708C49C9
:1012000008700BE106E100F0A1FA4FF4FA6087499B
:10121000086000208E49087085490870FEE000F0E3
:101220001FFA4FF4FA60814908600020884908706D
:101230007F490870F2E000F043FA40F6B8307B498D
:10124000086000208249087079490870E6E000F0E3
:10125000EFF94FF4FA607549086000207C49087086
:1012600073490870DAE000F043FA4FF4FA606F490E
:1012700008600020764908706D490870CEE0CDE026
:1012800000F08CFB4FF4FA60684908600020704958
:10129000087067490870C1E000F0AEFB40F6B83056
:1012A0006249086000206A49087061490870B5E029
:1012B00000F040FB42F210705C4908600020644975
:1012C00008705B490870A9E000F0B0FB4FF4FA60C9
:1012D0005649086000205E490870554908709DE035
:1012E0008DE069E05DE049E03BE02DE02BE01AE0B5
:1012F00010E08EE0FFE740F2D24156A000F0B0FBD4
:1013000043F698204949086000205149087048492F
:10131000087083E05248006800F0F8FB4FF47A70E0
:10132000424908607AE04E48008882B24D48016820
:10133000032003F089FA1420394908704FF47A70B9
:101340003A4908606AE069E0002000F017FA41F2CB
:1013500088303649086000203D49087034490870DB
:101360005CE041480168414800F0C2FA41F288302F
:101370002E49086000202E4908704FE03C48FEF7D7
:1013800005FF18B13A4800F04DFA02E039A000F02C
:1013900049FA41F288302549086000202449087044
:1013A0003CE0354800F086FA41F288301F49086079
:1013B00000201F49087031E0304800683049096852
:1013C000401AB0F5806F04D94FF480602D49086051
:1013D00006E02A4800682A490968401A2949086035
:1013E0002848026826480168234800F039FA41F28B
:1013F00088300E49086000200D4908700EE000F0AA
:10140000F7F941F28830094908600020084908705E
:1014100004E003E000200249087000BF00BF38BDAF
:10142000380000204800002020BF02003C000020BF
:10143000090000204000002039000020C4A3BFE9BB
:10144000B8B4CEBB0D0A0000E00100200C4F00082C
:101450000A0000203139322E3136382E312E31003B
:101460003000002034000020100000206C03002019
:10147000D00300202F0000009E0300201800002051
:10148000240000202000002010B504464F480068CA
:1014900040B14E480068401E4C490860204600F0AC
:1014A0000BFC10BD4A480078122805D13E2C02D111
:1014B000132047490870F4E745480078132803D102
:1014C0004448006800B1ECE74348006838B342483C
:1014D000006842490968884209D941483F4909687A
:1014E00044543E480068401C3C49086016E000F047
:1014F00089F80E223BA1022003F0A6F937480088A4
:1015000081B23748FFF754FD3448008882B234492D
:10151000012003F099F900202F490860C1E7354800
:1015200090F80801092817D03248D0F80001B0F52A
:10153000805F05D300202F49C1F8000181F8080120
:101540002C48D0F80011D0F80001401C294AC2F8FC
:1015500000011046445401E0FEF752FF254890F880
:10156000080130B101280BD0022825D0092825D147
:1015700023E00D2C03D101201E4981F8080122E04F
:101580000A2C12D109201B4981F808010846D0F81D
:101590000001022802D9FEF733FF0CE000201549B4
:1015A00081F80801C1F8000105E00D2C03D00020EE
:1015B000104981F8080106E005E004E000200D492B
:1015C00081F8080100BF00BF00BF6AE71C000020CF
:1015D00038000020300000202C00002028000020CF
:1015E0000208002053656E64546F486F73745B4447
:1015F0005D3A000060020020002001490870704739
:101600003800002010B507A1084803F0F9F9074891
:10161000FEF7BCFD84B222460449032003F014F90E
:1016200010BD000041540D0A00000000E001002040
:1016300010B507A1094803F0E3F90848FEF7A6FD35
:1016400084B222460549032003F0FEF810BD0000D5
:1016500041542B43455245473F0D0A00E00100200D
:1016600010B507A1094803F0CBF90848FEF78EFD35
:1016700084B222460549032003F0E6F810BD0000BD
:1016800041542B43494D490D0A000000E001002060
:1016900010B507A1094803F0B3F90848FEF776FD35
:1016A00084B222460549032003F0CEF810BD0000A5
:1016B00041542B4350494E3F0D0A0000E0010020E9
:1016C00010B507A1094803F09BF90848FEF75EFD35
:1016D00084B222460549032003F0B6F810BD00008D
:1016E00041542B435245473F0D0A0000E0010020C2
:1016F00010B507A1094803F083F90848FEF746FD35
:1017000084B222460549032003F09EF810BD000074
:1017100041542B4353510D0A00000000E00100200A
:1017200010B507A1084803F06BF90748FEF72EFD36
:1017300084B222460449032003F086F810BD00005D
:10174000415445300D0A0000E001002010B507A10A
:10175000094803F055F90848FEF718FD84B22246FF
:101760000549032003F070F810BD000041542B51CF
:10177000434349440D0A0000E001002070B50446CF
:1017800014B1012C0AD104E00AA1114803F038F980
:1017900004E010A10E4803F033F900BF00BF0C486D
:1017A000FEF7F4FC85B22A460949032003F04CF801
:1017B00070BD000041542B514654504346473D22D2
:1017C00066696C6574797065222C310D0A00000021
:1017D000E001002041542B514654504346473D22DE
:1017E0007472616E736D6F6465222C300D0A000097
:1017F00010B507A10A4803F003F90948FEF7C6FC33
:1018000084B222460649032003F01EF810BD0000F2
:1018100041542B51465450434C4F53450D0A000040
:10182000E001002070B50446224607A10B4803F0F2
:10183000E7F80A48FEF7AAFC85B22A4607490320C2
:1018400003F002F870BD000041542B514654504340
:1018500057443D222573220D0A000000E0010020BC
:10186000F8B504460D4616462B46224607A11048F9
:10187000009603F0C5F80E48FEF788FC87B23A469A
:101880000B49032002F0E0FFF8BD000041542B514A
:101890004654504745543D222573222C22434F4D38
:1018A0003A222C256C642C256C640D0A0000000083
:1018B000E001002070B50446224607A10B4803F062
:1018C0009FF80A48FEF762FC85B22A4607490320C2
:1018D00002F0BAFF70BD000041542B5146545053E2
:1018E000495A453D222573220D0A0000E0010020DF
:1018F00070B504460D462B46224607A10C4803F05E
:101900007FF80B48FEF742FC86B2324608490320B6
:1019100002F09AFF70BD000041542B514654504FC5
:1019200050454E3D222573222C25640D0A000000EF
:10193000E001002010B507A10A4803F061F809484A
:10194000FEF724FC84B222460649032002F07CFF05
:1019500010BD000041542B51494143543D310D0A03
:1019600000000000E001002010B507A10A4803F0C4
:1019700047F80948FEF70AFC84B2224606490320CC
:1019800002F062FF10BD000041542B51494C434FFF
:1019900053453D310D0A0000E001002038B50948EB
:1019A000094B0A4A0AA10090124803F029F811488D
:1019B000FEF7ECFB84B222460E49032002F044FFFE
:1019C00038BD0000F0120020D21200206400002078
:1019D00041542B5149435347503D312C312C222542
:1019E00073222C222573222C222573222C310D0ADE
:1019F00000000000E001002010B507A10A4802F035
:101A0000FFFF0948FEF7C2FB84B2224606490320C5
:101A100002F01AFF10BD000041542B5149444541CA
:101A200043543D310D0A0000E001002010B507A12C
:101A30000A4802F0E5FF0948FEF7A8FB84B22246F7
:101A40000649032002F000FF10BD000041542B5155
:101A500049444E534346473D310D0A00E001002002
:101A6000FEB505460E46104840790F4909794FF4F6
:101A7000807202FB01000C49C9780B4A9278CDE9CB
:101A80000021029008484378027808A1124802F029
:101A9000B7FF1148FEF77AFB84B222460E490320B5
:101AA00002F0D2FEFEBD00008200002041542B5106
:101AB000494F50454E3D312C302C22544350222C5E
:101AC0002225642E25642E25642E2564222C25646F
:101AD0002C302C300D0A0000E001002010B507A1C9
:101AE000094802F08DFF0848FEF750FB84B22246F9
:101AF0000549032002F0A8FE10BD000041542B51FF
:101B00004952443D300D0A00E001002070B5044602
:101B1000224607A10B4802F073FF0A48FEF736FB86
:101B200085B22A460749032002F08EFE70BD0000F0
:101B300041542B514953454E443D302C25640D0AE8
:101B400000000000E00100202DE9F04104460D46B0
:101B500016461F4622480078112806D020480078F3
:101B60000B2802D01520BDE8F0811EA1204802F00C
:101B700047FF1F48FEF70AFB1FFA80F842461C4940
:101B8000022002F061FE00F075F81AA1184802F078
:101B900037FF1748FEF7FAFA1FFA80F84246144951
:101BA000022002F051FE0E480078164908702146C6
:101BB0001548FEF7FFFA39461448FEF7FBFA31469E
:101BC0001348FEF7F7FA1348056017200449087018
:101BD0000020114908601149086001480078C2E7F7
:101BE00038000020B2C1B3FD464C4153480D0A00F5
:101BF000E0010020C6F4B6AFBDD3CAD5CEC4BCFE4A
:101C00000D0A00003A0000206C0300209E03002013
:101C1000D00300201000002020000020240000201D
:101C200010B504462CB901220221054800F050FDF0
:101C300004E000220221024800F04AFD10BD00002D
:101C4000000C0140024607480078112808D10648D8
:101C50000260064801601220024B18701320704782
:101C60001520FCE738000020340000203000002060
:101C700000BFFEE710B500F087F800F081F86020A3
:101C800000F00AF800F06BF802F088FE10BD10B505
:101C9000FF2000F001F810BD01B582B04FF6FF70D3
:101CA000012301AA02A90090024801F039FD9DF824
:101CB00004000EBDC800002070B50446134801683A
:101CC0000068401C114A10601148445411480068D3
:101CD000D0B911480E4902681048006800F0A5F814
:101CE0000A200F4908600F4803680C480EA10268DB
:101CF000134802F085FE1248FEF748FA85B22A46DC
:101D00000F49022002F0A0FD70BD00001400002069
:101D1000020400201C0000202000002024000020DD
:101D200040000020180000200D0AB4A2B4E6CAFD4D
:101D3000BEDD20256C642F256C640D0A00000000B8
:101D4000E001002010B50346002004E01C5C944232
:101D500000D110BD401C8842F8D300BFF9E710B590
:101D600002F0AEF810BD06E04FF6FF7100BF0A00AA
:101D7000A1F10101FBD10200A0F10100F4D17047F3
:101D800010B502F093F810BD10B5022002F029FE44
:101D900002F01EFE10BD2DE9F04104460E46174626
:101DA000FFF7F2FFFFF7ECFF0220FFF775FFC4F328
:101DB0000740FFF771FFC4F30720FFF76DFFE0B2A4
:101DC000FFF76AFF002503E0705DFFF765FF6D1CFC
:101DD000BD42F9D3FFF7C3FF02F0E0FDBDE8F0819B
:101DE0002DE9F04104460E461746FFF7C9FF0320D0
:101DF000FFF752FFC4F30740FFF74EFFC4F307207D
:101E0000FFF74AFFE0B2FFF747FF002504E0FF209D
:101E1000FFF742FF70556D1CBD42F8D3FFF79FFFDF
:101E200002F0BCFD0020BDE8F0812DE9F04105463F
:101E30000F461646ECB2A019B0F5807F0CD9C4F558
:101E40008074224639462846FFF7A5FF321B391910
:101E50002819FFF7EAFF04E0324639462846FFF723
:101E60009AFF0120BDE8F08110B54F4C4F48007833
:101E700030B1012805D0022811D0032878D178E0AC
:101E80008FE000F09FF84A49086000204949087037
:101E900002204649087000204749086081E0454813
:101EA0000078401C4349087008460078052803DD87
:101EB00000203E4908705AE068202070AA220621BE
:101EC000601CFEF751F96820E07101202072F020BB
:101ED000A074AA20E07438480088012101EBD010DA
:101EE00060753548006801EBD010010AA1753048D3
:101EF0000088C0F3C710E0752D480068C10B21763B
:101F0000022060742A4800682B490968401A80281A
:101F10000BD9802204F1190127480068FFF760FF00
:101F20008E2060720020A07213E0214800682249D0
:101F30000968421A04F119011F480068FFF750FFB1
:101F40001B4800781C490978401A0E306072002046
:101F5000A07201212046FEF7B1FF0020174908704A
:101F600003201249087041F288301549086018E0D2
:101F700016E01348006828B111480068401E104957
:101F8000086002E00220094908700C480078012826
:101F900005D100200749087002200449087000E0BC
:101FA00000BF00BF10BD00006411002054000020DD
:101FB000580000205600002060000020550000203E
:101FC0005C000020014800687047000018000020F5
:101FD000F0B5034600200025002600241DE01F78F0
:101FE000302F03DB1F78392F00DC01269EB11F78CC
:101FF000302F0ADB1F78392F07DC00EB80077800D1
:102000001F7807F00F07384405E06F1CFDB29542BA
:1020100000D1F0BD00205B1C641C8C42DFD300BFEC
:10202000F7E7000078B5024600230020009000BFCB
:1020300092F82400012801D1022078BD012082F805
:10204000240000BF486807281DD21068446B087937
:10205000401E4FF4787595FAA5F5B5FA85F56843F5
:102060001F25854024EA05000C79641E4FF478761C
:1020700096FAA6F6B6FA86F674430D68A54028438C
:10208000146860633DE048680D281DD21068046B39
:102090000879C01F4FF4787595FAA5F5B5FA85F55E
:1020A00068431F25854024EA05000C79E41F4FF49E
:1020B000787696FAA6F6B6FA86F674430D68A540C9
:1020C0002843146820631CE01068C46A08790D383E
:1020D0004FF4787595FAA5F5B5FA85F568431F258F
:1020E000854024EA05000C790D3C4FF4787696FA89
:1020F000A6F6B6FA86F674430D68A5402843146820
:10210000E06208680A281BD31068C46808780A3897
:10211000382595FAA5F5B5FA85F568430725854074
:1021200024EA05000C780A3C382696FAA6F6B6FA98
:1021300086F674438D68A54028431468E06017E074
:10214000106800690C78382595FAA5F5B5FA85F57B
:102150006C430725A540A8430D78382696FAA6F6C5
:10216000B6FA86F675438C68AC402043146820614B
:102170000868102802D00868112827D1174C106869
:10218000A0421ED11068806800F40000F0B9106809
:10219000806840F400001468A0600868102815D119
:1021A0000F4800680F4CB0FBF4F000EB80004000DB
:1021B000009002E00098401E009000980028F9D19D
:1021C00004E0906A40F020009062012300BF0020EC
:1021D00082F8240000BF18462FE7000000240140C9
:1021E0009400002040420F002DE9F04104460027F2
:1021F00000250026A84614B90120BDE8F081A0689A
:1022000010B1606900B100BFA06A30B90020E0627F
:1022100084F82400204600F099F82046FEF725F8BF
:102220000746A06A00F01000002876D1002FFCD1EC
:10223000A06A20F4885040F00200A062E169606862
:102240000843022292FAA2F2B2FA82F2E1689140C5
:1022500008430643A068B0F5807F02D0A06801283B
:1022600002D14FF4807000E000200543606901282E
:1022700016D1E06860B9A069401E4FF4604191FA40
:10228000A1F1B1FA81F1884040F40060054307E014
:10229000A06A40F02000A062E06A40F00100E06225
:1022A0002068406820F4694028432168486020681D
:1022B000806824490840304321688860A068B0F5F0
:1022C000807F02D0A068012802D14FF4807000E026
:1022D0000020B0F5807F09D12069401E4FF47001C5
:1022E00091FAA1F1B1FA81F100FA01F82068C06A0F
:1022F00020F4700040EA08002168C8622068806805
:1023000011490840B04209D10020E062A06A20F0E3
:10231000020040F00100A06211E00BE0A06A20F092
:10232000020040F01000A062E06A40F00100E062AC
:10233000012704E0A06A40F01000A062012738469F
:102340005BE70000FDF7E1FFFE0E1FFF10B586B052
:1023500004460E492068884215D100BF0C488069A8
:1023600040F400700A4988610846806900F40070F2
:10237000019000BF00BF012002900320039002A93A
:10238000044800F017F806B010BD0000002401401A
:10239000001002400008014031B5002400F09EF911
:1023A000044600BF00F09AF9001B00998842F9D357
:1023B00038BD00002DE9F847034600240020002521
:1023C0008446002700226EE14FF0010808FA02F46B
:1023D000D1F8008008EA0400A0427DD1DFF8D0A245
:1023E000D1F80480A8EB0A09D0453AD014DCB8F142
:1023F000030F50D009DCB8F1000F31D0B8F1010F54
:102400001CD0B8F1020F49D120E0B8F1110F18D05B
:10241000B8F1120F42D11EE0B9F5881F25D006DCB5
:10242000B9F5803F20D0B9F5801F37D11AE0B9F552
:10243000001F18D0B9F5041F30D117E0D1F80CC037
:102440002DE0D1F80C8008F1040C28E0D1F80C80C4
:1024500008F1080C23E0D1F80C8008F10C0C1EE008
:1024600000BF00BF00BF00BF00BF00BFD1F80880A1
:10247000B8F1000F02D14FF0040C0BE0D1F8088046
:10248000B8F1010F03D14FF0080C1C6102E04FF0CE
:10249000080C5C6103E04FF0000C00E000BF00BFDF
:1024A000FF2801D8984601E003F104084646FF28BA
:1024B00002D84FEA820803E0A2F108084FEA880830
:1024C0004746D6F800804FF00F0909FA07F928EAC5
:1024D00009080CFA07F900E088E048EA0908C6F89C
:1024E0000080D1F8048008F08058B8F1805F7DD179
:1024F00000BFDFF8C081D8F8188048F00108DFF885
:10250000B491C9F81880C846D8F8188008F00108B6
:10251000CDF8008000BF00BF4FEAB9384FEA9209FA
:1025200058F829504FEA82784FEA18794FF00F088F
:1025300008FA09F825EA0805DFF87C81434502D14D
:102540004FF0000816E0DFF87481434502D14FF0E8
:1025500001080FE0DFF86881434502D14FF002081F
:1025600008E0DFF86081434502D14FF0030801E045
:102570004FF004084FEA82794FEA197908FA09F80E
:1025800048EA0505DFF840814FEA920948F82950EA
:10259000D1F8048008F48038B8F5803F0AD1DFF81C
:1025A0002C81D8F8008048EA0008DFF82091C9F8AB
:1025B000008009E0DFF81481D8F8008028EA0008DC
:1025C000DFF80891C9F80080D1F8048008F40038D9
:1025D000B8F5003F10D1DFF8F48008F10408D8F80E
:1025E000008048EA0008DFF8E49000E05AE009F1D2
:1025F0000409C9F800800DE0DFF8D08008F1040874
:10260000D8F8008028EA0008DFF8C09009F1040932
:10261000C9F80080D1F8048008F48018B8F5801F4C
:102620000ED1DFF8A88008F10808D8F8008048EA41
:102630000008DFF8989009F10809C9F800800DE05A
:10264000DFF8888008F10808D8F8008028EA000838
:10265000DFF8789009F10809C9F80080D1F8048002
:1026600008F40018B8F5001F0ED1DFF8608008F1FB
:102670000C08D8F8008048EA0008DFF8509009F10B
:102680000C09C9F800800DE0DFF8408008F10C0863
:10269000D8F8008028EA0008DFF8309009F10C092A
:1026A000C9F80080521C102AFFF48EAEBDE8F887EE
:1026B000000011100010024000080140000C014011
:1026C00000100140001401400800014000040140D6
:1026D0000AB1016101E00B04036170470148006821
:1026E000704700000000002002480068401C0149BB
:1026F000086070470000002010B50848006840F0EE
:10270000100006490860032000F0AEF8002000F039
:1027100007F800F017F8002010BD0000002002406C
:1027200070B5044600F0BEFA4FF47A71B0FBF1F5D3
:10273000284601F0B1F900222146501E00F055F85C
:10274000002070BD08B500BF1F48806940F001003F
:102750001D4988610846806900F00100009000BFB3
:1027600000BF032000F080F8002211466FF00B003C
:1027700000F03BF8002211466FF00A0000F035F837
:10278000002211466FF0090000F02FF800221146D8
:10279000501F00F02AF800221146101F00F025F803
:1027A00000221146901E00F020F800221146501E13
:1027B00000F01BF80548406820F0E06040F0007031
:1027C0000249486008BD00000010024000000140BE
:1027D00000BF00F01F02012191404209920002F166
:1027E000E022C2F8001100BF70472DE9F05F80467B
:1027F0000D461646002701F011FD074639462A46C8
:10280000334601F00700C0F1070ABAF1040F02D9FC
:102810004FF0040A01E0C0F1070AD14600F1040AB2
:10282000BAF1070F02D24FF0000A01E0A0F1030A4B
:10283000D4464FF0010A0AFA09FAAAF1010A0AEA93
:10284000020A0AFA0CFA4FF0010B0BFA0CFBABF17F
:10285000010B0BEA030B4AEA0B042146404601F048
:10286000E5FCBDE8F09F000000BF00F00702064B4A
:1028700019684FF6FF031940044B0B4343EA02214A
:10288000014B196000BF70470CED00E00000FA0535
:10289000F8B5044600260025207800F00100002845
:1028A00077D000BF5648C06940F080505449C86195
:1028B0000846C06900F08050009000BF00BF51483A
:1028C000006840F480704F490860FFF707FF064634
:1028D00006E0FFF703FF801B642801D90320F8BD41
:1028E0004848006800F480700028F2D04448006A2C
:1028F00000F44075002D5ED0A08800F44070A8421E
:1029000059D03F48006A20F440750120010491FA33
:10291000A1F1B1FA81F13C4A02EB8101C1F8000456
:1029200000204FF4803191FAA1F1B1FA81F102EB6C
:102930008101C1F800043248056205F0010048B386
:10294000FFF7CCFE064608E0FFF7C8FE801B41F209
:102950008831884201D90320C1E74020022191FA41
:10296000A1F1B1FA81F108430121B1EB601F02D15D
:102970002348006811E04020022191FAA1F1B1FA48
:1029800081F108430221B1EB601F04D11C48006AA9
:1029900003E018E00FE01A48406A4021022292FA50
:1029A000A2F2B2FA82F2114301F01F02012191401A
:1029B00008400028C8D01248006A20F440706168BE
:1029C00008430F490862207800F00200022807D16E
:1029D0000B48406820F44040A1680843084948601B
:1029E000207800F01000102807D10548406820F436
:1029F0008000E16808430249486000206FE700005A
:102A000000100240007000400000424270B50446D1
:102A10000D4600269F48006800F00700A8420ED22D
:102A20009C48006820F0070028439A49086008463F
:102A3000006800F00700A84201D0012070BD207896
:102A400000F00200022807D19348406820F0F0000F
:102A5000A168084390494860207800F001000028F0
:102A60007CD0606801282DD12020010391FAA1F1CA
:102A7000B1FA81F108430121B1EB601F02D1864810
:102A800000680FE02020010391FAA1F1B1FA81F171
:102A900008430221B1EB601F02D17F48006A01E0C8
:102AA0007D48406A20210A0392FAA2F2B2FA82F229
:102AB000114301F01F02012191400840002860D11C
:102AC0000120BBE7606802282CD12020010591FA83
:102AD000A1F1B1FA81F108430121B1EB601F02D1EC
:102AE0006D4800680FE02020010591FAA1F1B1FACC
:102AF00081F108430221B1EB601F02D16648006AF0
:102B000001E06548406A20210A0592FAA2F2B2FA71
:102B100082F2114301F01F0201219140084078BB6D
:102B200001208BE72020022191FAA1F1B1FA81F175
:102B300008430121B1EB601F02D15748006810E043
:102B40002020022191FAA1F1B1FA81F1084302217A
:102B5000B1EB601F03D15048006A02E054E04E48D8
:102B6000406A2021022292FAA2F2B2FA82F21143C2
:102B700001F01F0201219140084008B901205DE7E2
:102B8000FFE74548406820F0030061680843424978
:102B90004860FFF7A3FD06466068012810D108E0F1
:102BA000FFF79CFD801B41F28831884201D9032048
:102BB00044E73948406800F00C000428F0D123E0D5
:102BC0006068022810D108E0FFF788FD801B41F201
:102BD0008831884201D9032030E72F48406800F04F
:102BE0000C000828F0D10FE008E0FFF777FD801B0C
:102BF00041F28831884201D903201FE72648406806
:102C000000F00C000028F0D12248006800F0070016
:102C1000A8420ED91F48006820F0070028431D492C
:102C200008600846006800F00700A84201D00120B3
:102C300004E7207800F00400042807D11648406813
:102C400020F4E060E168084313494860207800F010
:102C50000800082808D11048406820F46050216915
:102C600040EAC1000C49486000F04EF80A49496842
:102C700001F0F001F02292FAA2F2B2FA82F2D1400F
:102C8000064A515CC840064908600020FFF748FD2D
:102C90000020D3E600200240001002400F4F000841
:102CA0009400002001480068704700009400002054
:102CB00000B5FFF7F7FF0749496801F4E0614FF4F9
:102CC000E06292FAA2F2B2FA82F2D140024A515C78
:102CD000C84000BD001002401F4F000800B5FFF7BC
:102CE000E1FF0749496801F460514FF4605292FADC
:102CF000A2F2B2FA82F2D140024A515CC84000BD51
:102D0000001002401F4F0008F0B585B00FF28C0C88
:102D10009CE8E01001A8A0E8E01024A52D6800952B
:102D200000210024002200230020214D696801F0C9
:102D30000C056DB3042D02D0082D28D101E01D48EB
:102D400028E001F470154FF4701696FAA6F6B6FA5C
:102D500086F6F54001AE735D01F4803595B1144DF2
:102D60006D6805F400354FF4003696FAA6F6B6FA0B
:102D700086F6F5401DF805400E4DB5FBF4F505FB54
:102D800003F202E00C4D03FB05F2104602E000BF27
:102D9000084800BF00BF05B0F0BD000002030405F5
:102DA000060708090A0B0C0D0E0F10100102000097
:102DB0000010024000127A0000093D0038B50446B8
:102DC0000025207800F0010000287CD0F8484068F9
:102DD00000F00C0004280CD0F548406800F00C000E
:102DE000082837D1F248406800F48030B0F5803FC1
:102DF00030D12020010391FAA1F1B1FA81F1084309
:102E00000121B1EB601F02D1E94800680FE02020EA
:102E1000010391FAA1F1B1FA81F108430221B1EB6A
:102E2000601F02D1E248006A01E0E148406A2021C7
:102E30000A0392FAA2F2B2FA82F2114301F01F02DF
:102E40000121914008400028BFD0606800283AD195
:102E5000012038BD00BF6068B0F5803F06D1D4487E
:102E6000006840F48030D249086028E0606858B9B2
:102E7000CF48006820F48030CD49086008460068DB
:102E800020F4802008601AE06068B0F5A02F0BD114
:102E9000C748006840F48020C549086008460068BB
:102EA00040F4803008600AE0C148006820F48030B7
:102EB000BF4908600846006820F48020086000BF11
:102EC0006068C8B300E06FE0FFF708FC054606E065
:102ED000FFF704FC401B642801D90320B9E7202038
:102EE000010391FAA1F1B1FA81F108430121B1EB9B
:102EF000601F02D1AE4800680FE02020010391FA64
:102F0000A1F1B1FA81F108430221B1EB601F02D1B6
:102F1000A748006A01E0A648406A20210A0392FA05
:102F2000A2F2B2FA82F2114301F01F020121914094
:102F300008400028CCD037E0FFE7FFF7CFFB05467D
:102F400006E0FFF7CBFB401B642801D9032080E794
:102F50002020010391FAA1F1B1FA81F10843012186
:102F6000B1EB601F02D1924800680FE020200103FE
:102F700091FAA1F1B1FA81F108430221B1EB601F8E
:102F800002D18B48006A01E08948406A20210A0387
:102F900092FAA2F2B2FA82F2114301F01F02012169
:102FA000914008400028CCD1207800F0020002288F
:102FB0004ED17F48406800F00C0050B17C4840681A
:102FC00000F00C00082844D17948406800F48030B3
:102FD00078BB2020022191FAA1F1B1FA81F10843D6
:102FE0000121B1EB601F02D1714800680FE0202081
:102FF000022191FAA1F1B1FA81F108430221B1EB6A
:10300000601F02D16A48006A01E06948406A2021D5
:10301000022292FAA2F2B2FA82F2114301F01F02E6
:1030200001219140084028B12069012802D00120E7
:103030000FE70EE05E48006820F0F800F82292FAF0
:10304000A2F2B2FA82F261699140084358490860DD
:1030500091E02069F0B3012090FAA0F1B1FA81F17A
:10306000544A42F82100FFF739FB054606E0FFF716
:1030700035FB401B022801D90320EAE6202002216B
:1030800091FAA1F1B1FA81F108430121B1EB601F7E
:1030900002D1474800680FE02020022191FAA1F1F7
:1030A000B1FA81F108430221B1EB601F02D140481F
:1030B000006A01E03E48406A2021022292FAA2F210
:1030C000B2FA82F2114301F01F020121914008403F
:1030D000002800E00FE0CAD03548006820F0F80072
:1030E000F82292FAA2F2B2FA82F2616991400843A0
:1030F0002F4908603FE00020012191FAA1F1B1FAC7
:1031000081F12C4A42F82100FFF7E8FA054606E073
:10311000FFF7E4FA401B022801D9032099E620209A
:10312000022191FAA1F1B1FA81F108430121B1EB39
:10313000601F02D11E4800680FE02020022191FA92
:10314000A1F1B1FA81F108430221B1EB601F02D174
:103150001748006A01E01648406A2021022292FACC
:10316000A2F2B2FA82F2114301F01F020121914052
:1031700008400028CCD1207800F0080008284BD166
:10318000A069A8B3012191FAA1F0B0FA80F0094A30
:1031900002EB8000C0F88014FFF7A0FA05460BE0B0
:1031A000FFF79CFA401B022806D9032051E60000D5
:1031B00000100240000042426020022191FAA1F179
:1031C000B1FA81F108430121B1EB601F02D1F94846
:1031D000006810E06020022191FAA1F1B1FA81F1BA
:1031E00008430221B1EB601F03D1F248006A02E0FC
:1031F00013E0F048406A6021022292FAA2F2B2FA89
:1032000082F2114301F01F02012191400840002881
:10321000C6D00120FFF7C0F841E00020012191FA5B
:10322000A1F1B1FA81F1E44A02EB8101C1F8800415
:10323000FFF754FA054606E0FFF750FA401B022854
:1032400001D9032005E66020022191FAA1F1B1FA2B
:1032500081F108430121B1EB601F02D1D54800681C
:103260000FE06020022191FAA1F1B1FA81F1084347
:103270000221B1EB601F02D1CE48006A01E0CD48C7
:10328000406A6021022292FAA2F2B2FA82F211435B
:1032900001F01F020121914008400028CCD1207884
:1032A00000F00400042875D100BFC248C06940F096
:1032B0008050C049C8610846C06900F08050009045
:1032C00000BF00BFBD48006840F48070BB49086083
:1032D000FFF704FA054606E0FFF700FA401B6428F2
:1032E00001D90320B5E5B548006800F480700028D6
:1032F000F2D000BFE068012806D1AE48006A40F075
:103300000100AC49086227E0E06858B9A948006AA2
:1033100020F00100A74908620846006A20F0040076
:10332000086219E0E06805280BD1A248006A40F065
:103330000400A04908620846006A40F001000862E3
:103340000AE09C48006A20F001009A490862084699
:10335000006A20F00400086200BFE068D0B3FFF705
:10336000BDF9054608E0FFF7B9F9401B41F2883185
:10337000884201D903206CE54020022191FAA1F195
:10338000B1FA81F108430121B1EB601F03D18948F3
:10339000006810E058E04020022191FAA1F1B1FA52
:1033A00081F108430221B1EB601F02D18148006A1C
:1033B00001E08048406A4021022292FAA2F2B2FA69
:1033C00082F2114301F01F020121914008400028C0
:1033D000C9D039E0FFE7FFF781F9054608E0FFF7BC
:1033E0007DF9401B41F28831884201D9032030E544
:1033F0004020022191FAA1F1B1FA81F108430121A3
:10340000B1EB601F02D16B4800680FE04020022141
:1034100091FAA1F1B1FA81F108430221B1EB601FE9
:1034200002D16448006A01E06248406A40210222F9
:1034300092FAA2F2B2FA82F2114301F01F020121C4
:10344000914008400028CAD1E069002873D059484B
:10345000406800F00C0008286ED0E06902286CD1AA
:1034600000204FF0807191FAA1F1B1FA81F1524A36
:1034700042F82100FFF732F9054606E0FFF72EF982
:10348000401B022801D90320E3E42020010591FA22
:10349000A1F1B1FA81F108430121B1EB601F02D122
:1034A000444800680FE02020010591FAA1F1B1FA2B
:1034B00081F108430221B1EB601F02D13D48006A4F
:1034C00001E03C48406A20210A0592FAA2F2B2FAD1
:1034D00082F2114301F01F020121914008400028AF
:1034E000CCD1206AB0F5803F07D13248406820F443
:1034F0000030A16808432F494860D4E90801084317
:103500002C49496821F4741108432A494860012173
:10351000080690FAA0F0B0FA80F0274A42F820108E
:10352000FFF7DCF8054609E0FFF7D8F8401B022852
:1035300004D903208DE479E076E02CE02020010519
:1035400091FAA1F1B1FA81F108430121B1EB601FB9
:1035500002D1184800680FE02020010591FAA1F17E
:10356000B1FA81F108430221B1EB601F02D1114889
:10357000006A01E00F48406A20210A0592FAA2F28F
:10358000B2FA82F2114301F01F020121914008407A
:103590000028C9D04AE000204FF0807191FAA1F1D3
:1035A000B1FA81F1044A42F82100FFF797F8054685
:1035B0000DE0000000100240000042420070004098
:1035C000FFF78CF8401B022801D9032041E420209A
:1035D000010591FAA1F1B1FA81F108430121B1EBA2
:1035E000601F02D1124800680FE02020010591FA07
:1035F000A1F1B1FA81F108430221B1EB601F02D1C0
:103600000B48006A01E00A48406A20210A0592FA44
:10361000A2F2B2FA82F2114301F01F02012191409D
:1036200008400028CCD101E0012012E4002010E481
:103630000010024010B504460CB9012010BD94F8EA
:10364000510010B9204600F03BF8022084F85100E8
:103650002068006820F0400021680860D4E901017A
:103660000843E16808432169084361690843218BE5
:1036700001F400710843E1690843216A0843A16A23
:103680000843216808600421A06901EA1040616ACA
:103690000843216848602168E06A08612068C069C1
:1036A00020F400602168C86100200449087060654A
:1036B000012084F851000020C0E700000400002031
:1036C00010B586B0044613492068884220D100BF57
:1036D0001148806940F480500F498861084680692C
:1036E00000F48050019000BF00BFA0200290022093
:1036F00003900320059002A90848FEF75BFE4020D6
:10370000029000200390049002A90448FEF752FEA4
:1037100006B010BD0030014000100240000801401A
:103720002DE9F84304460E4617461D46DDF8208075
:103730000020009094F85100012803D094F8510023
:10374000222876D10EB107B115B90120BDE8F88362
:1037500000BF94F85000012801D10220F6E70120B3
:1037600084F8500000BF94F85100012802D13220A3
:1037700084F8510000206065A763A587E58726636C
:10378000A586E586A064E064A06AB0F5005F0DD16F
:1037900000BF2068006820F400502168086020689D
:1037A000006840F400502168086000BF206800688D
:1037B00000F04000402805D02068006840F040003C
:1037C00021680860E068B0F5006F75D1606830B1BD
:1037D0006068B0F5827F0CD1E08E012809D1206BA2
:1037E00000882168C860206B801C2063E08E401E2A
:1037F000E086E08EF0B9A06AB0F5005F05D12068E0
:10380000006840F48050216808604346002201218E
:10381000204600F069FD08B1032097E72068C068E2
:10382000A16B0880A06B801CA063E08F401EE08726
:10383000C7E015E131E0434600220221204600F0B6
:1038400053FD08B1032081E7206B00882168C86020
:10385000206B801C2063E08E401EE086E08E48B91D
:10386000A06AB0F5005F05D12068006840F4805080
:1038700021680860434600220121204600F034FD03
:1038800008B1032062E72068C068A16B0880A06BC4
:10389000801CA063E08F401EE087E08E0028CADC19
:1038A00060680028C4D1434600220121204600F070
:1038B0001BFD10B1032049E70AE02068C068A16B36
:1038C0000880A06B801CA063E08F401EE08778E03A
:1038D000606830B16068B0F5827F0BD1E08E01285E
:1038E00008D1216B481C206308782168C860E08EED
:1038F000401EE086E08ED0B9A06AB0F5005F05D129
:103900002068006840F48050216808604346002227
:103910000121204600F0E8FC08B1032016E72068EA
:10392000C068A16B0870E08F401EE08749E030E07E
:10393000434600220221204600F0D6FC08B10320B5
:1039400004E7216B481C206308782168C860E08E7A
:10395000401EE086E08E48B9A06AB0F5005F05D150
:103960002068006840F480502168086043460022C7
:103970000121204600F0B8FC08B10320E6E62068EB
:10398000C068C1B2A26B501CA0631170E08F401ED2
:10399000E087E08E0028CBDC606890B943460022C7
:1039A0000121204600F0A0FC08B10320CEE62068EB
:1039B000C068C1B2A26B501CA0631170E08F401EA2
:1039C000E087A06AB0F5005F12D1434600220121D2
:1039D000204600F089FC28B1606D40F0020060656F
:1039E0000320B3E62068C06880B20090BDF80000F4
:1039F000434601228021204600F076FC28B1606D0C
:103A000040F0100060650320A0E6012084F851001A
:103A1000A06AB0F5005F1DD120688068C0F3001077
:103A2000C0B1606D40F00200606500BF20680068B2
:103A300020F40050216808602068006840F40050BD
:103A40002168086000BF00BF002084F8500000BF5C
:103A500001207BE600BF002084F8500000BF75E61F
:103A6000022073E6042808D14FF0E021096941F0F3
:103A700004014FF0E022116107E04FF0E0210969F5
:103A800021F004014FF0E02211617047012001494B
:103A9000087070479000002070B504462546681EE7
:103AA000B0F1807F01D301200FE0681E4FF0E021CC
:103AB00048610F214FF0FF3000F0B8FB00204FF0BD
:103AC000E021886107200861002070BD10B5FFF774
:103AD000DDFF10BD7047F8B50446002500262068BC
:103AE000006800F001052068C06800F4807625B108
:103AF0001EB1E06B40F00100E06320680068C0F395
:103B000040052068406900F0010625B11EB1E06B58
:103B100040F00400E06320680068C0F3800525B130
:103B20001EB1E06B40F00200E06320680068C0F363
:103B3000C00525B11EB1E06B40F00800E0632068CD
:103B40000068C0F340152068C06800F020061DB171
:103B500016B1204600F014FD20680068C0F3C015BF
:103B60002068C06800F080061DB116B1204600F044
:103B70000FFE20680068C0F380152068C06800F060
:103B800040061DB116B1204600F0E2FCE06B70B1BA
:103B900000BF20680068009020684068009000BF67
:103BA00000BF012084F839002046FFF793FFF8BDDD
:103BB00010B504460CB9012010BDA06900B100E0A9
:103BC00000BF94F8390028B9002084F83800204656
:103BD00000F026F8022084F839002068C06820F43C
:103BE00000502168C860204600F0EEFC20680069A3
:103BF00020F49040216808612068406920F02A0084
:103C0000216848612068C06840F400502168C8609D
:103C10000020E063012084F839000020CCE7000098
:103C200010B586B004464649206888422AD100BFB4
:103C30004448806940F48040424988610846806970
:103C400000F48040019000BF00BF481502900220A0
:103C500003900320059002A93B48FEF7ABFB4FF40D
:103C60008060029000200390049002A93648FEF77D
:103C7000A1FB002211462520FEF7B7FD2520FEF707
:103C8000A7FD5BE031492068884229D100BF2D485B
:103C9000C06940F400302B49C8610846C06900F48F
:103CA0000030019000BF00BF04200290022003906A
:103CB0000320059002A92448FEF77CFB082002900F
:103CC00000200390049002A91F48FEF773FB002216
:103CD00011462620FEF789FD2620FEF779FD2DE00E
:103CE0001B492068884229D100BF1648C06940F4AA
:103CF00080201449C8610846C06900F48020019002
:103D000000BF00BF08150290022003900320059019
:103D100002A91048FEF74EFB4FF40060029000200D
:103D20000390049002A90B48FEF744FB00221146C1
:103D30002720FEF75AFD2720FEF74AFD06B010BDEA
:103D400000380140001002400008014000440040DB
:103D500000480040000C0140704700BFFEE7000033
:103D600010B5002467E0C4EB041000EB8000464966
:103D700001EB8000D0F8240190B1C4EB041000EBFB
:103D8000800001EB8000D0F82401401EC4EB041138
:103D900001EB81013C4A02EB8101C1F8240148E0BA
:103DA000C4EB041000EB8000374901EB8000D0F831
:103DB000200100283DD0012C04D10A2133A0FDF7B9
:103DC0002FF903E00B2134A0FDF72AF9C4EB04120C
:103DD00002EB82022C4B03EB8202B2F8202191B25B
:103DE000C4EB041202EB820203EB8200FDF7BEF883
:103DF0002046FCF77DFF90B1012C10D1C4EB0412DA
:103E000002EB8202204B03EB8202D2F82011C4EBBA
:103E1000041202EB820203EB8200FDF713FF002085
:103E2000C4EB041101EB8101174A02EB8101C1F8D7
:103E30002001601CC4B2022C95DB1A48006828B12E
:103E400018480068401E1749086019E016480078B5
:103E500020B101280AD002280DD10BE040F6B8307D
:103E60001049086001201049087008E002200E493E
:103E7000087004E003E000200B49087000BF00BF99
:103E8000FDF7F2FF10BD0000E00D002052656376E3
:103E90005F486F73743A0000526563765F446562F1
:103EA00075673A008C0000208800002010B50022C1
:103EB0004FF480510148FEF70BFC10BD000C01408F
:103EC00010B5012211030248FEF702FC10BD0000EC
:103ED000000C01400EB5124812490860002111483B
:103EE0008160C16041614FF46021C16100200D49D2
:103EF000486001210B480161FEF776F908B1FDF732
:103F0000B7FE002000900120019000200290694639
:103F10000448FEF787F808B1FDF7AAFE0EBD0000C1
:103F2000002401409800002000B585B000BF44483F
:103F3000806940F01000424988610846806900F0BD
:103F40001000009000BF00BF00BF0846806940F02D
:103F5000200088610846806900F02000009000BFC2
:103F600000BF00BF0846806940F004008861084631
:103F7000806900F00400009000BF00BF00BF084649
:103F8000806940F0080088610846806900F00800F8
:103F9000009000BF00BF4FF46040019003200290EA
:103FA00001A92848FEF706FA49F6021001900320FD
:103FB000029001A92448FEF7FDF91020019001208C
:103FC00002900220049001A91F48FEF7F3F94FF276
:103FD000FF3001900320029001A91C48FEF7EAF986
:103FE00002200190012002900320049001A91748AB
:103FF000FEF7E0F9012202211448FEF769FB4FF4B5
:1040000080500190012002900320049001A90F48E4
:10401000FEF7D0F9012211030C48FEF759FB1020DE
:104020000190012002900320049001A90648FEF7A8
:10403000C1F9012210210448FEF74AFB05B000BD7A
:10404000001002400010014000080140000C014037
:1040500010B50E480E4908604FF482704860002188
:104060000B488160C160016141614FF40071816161
:104070002821C16100210162416281620A21C1627D
:10408000FFF7D8FA08B1FDF7F3FD10BD003001408D
:10409000C800002010B50B480B4908604FF4614080
:1040A0004860002108488160C16001610C214161C4
:1040B00000218161C161FFF77BFD08B1FDF7D8FDEB
:1040C00010BD0000003801402001002010B50B4851
:1040D0000B4908604FF4E1304860002108488160D6
:1040E000C16001610C21416100218161C161FFF763
:1040F0005FFD08B1FDF7BCFD10BD000000440040AD
:104100006001002010B50B480B4908604FF4E13006
:104110004860002108488160C16001610C21416153
:1041200000218161C161FFF743FD08B1FDF7A0FDEA
:1041300010BD000000480040A001002070B50546F9
:104140000E46022D01D1002402E0012D00D10124F0
:104150000A20C4EB041101EB81012D4A02EB81011D
:10416000C1F82401C4EB041000EB8000114601EB00
:104170008000D0F82001B0F5907F22D2C4EB04106B
:1041800000EB800001EB8000D0F82011C4EB04109C
:1041900000EB800002EB8000D0F82001401CC4EB53
:1041A000041202EB82021A4B03EB8202C2F82001D6
:1041B000C4EB041000EB80001A4602EB800046546A
:1041C00024E0012C10D1C4EB041202EB8202104B4C
:1041D00003EB8202D2F82011C4EB041202EB82023C
:1041E00003EB8200FDF72EFD0020C4EB041101EB70
:1041F0008101074A02EB810181F82801C4EB041117
:1042000001EB810102EB8101C1F8200170BD0000CA
:10421000E00D002000BFFEE7704700000248006884
:10422000C0F30220704700000CED00E010B500283C
:1042300007DA0A07140E054A00F00F031B1FD454B7
:1042400003E00A07130E024A135410BD18ED00E0F4
:1042500000E400E00C480068C06840F020000A4913
:104260000968C86009480068C06840F02000074934
:104270000968C86006480068C06840F0200004492A
:104280000968C8607047000020010020600100201C
:10429000A00100207047000010B588B019240C4818
:1042A000807800900A48437802780AA101A800F0BB
:1042B000A7FB01A8FBF76AFFA04203D201A8FBF706
:1042C00065FFC4B2214601A8FCF7AAFE08B010BDE4
:1042D0000C4F0008445455203D205625642E25647B
:1042E0002E25640D0A0000002DE9F04104460E461B
:1042F00017461D464FF00008FEF7F0F98046002FE4
:104300003ED132E0681C78B32DB1FEF7E7F9A0EB9F
:104310000800A84229D92068406820F0E000216800
:1043200048602068006820F0400021680860A06AAA
:10433000B0F5005F0DD100BF2068006820F4005088
:10434000216808602068006840F400502168086017
:1043500000BF012084F8510000BF002084F8500005
:1043600000BF0320BDE8F081FFE72068806830408F
:10437000B04201D1012000E000200028C2D03BE083
:1043800030E0681C70B32DB1FEF7A8F9A0EB08006F
:10439000A84227D92068406820F0E00021684860E2
:1043A0002068006820F0400021680860A06AB0F52D
:1043B000005F0DD100BF2068006820F40050216824
:1043C00008602068006840F400502168086000BF61
:1043D000012084F8510000BF002084F8500000BF85
:1043E0000320BFE7206880683040B04201D101203F
:1043F00000E000200028C4D10020B3E7704700008F
:104400002DE9F04107460E46154C68202070FF222A
:104410000621601CFBF7A8FE6820E07105202072D1
:104420005220A074C320E074FF22062104F10B0087
:10443000FBF79AFE06F10A0884F809804FEA182073
:10444000A072002504E0795D04F1150041556D1C52
:10445000B542F8D301212046FCF730FDBDE8F081DC
:104460006411002010B5FEF73FF9FFF72FFB10BDD8
:1044700010B594B002200A9001200E9010200F90E9
:1044800002201190002112914FF4E01113910AA81B
:10449000FEF794FC08B1FDF7EBFB0F20059002201E
:1044A0000690002007904FF480600890002009904B
:1044B000022105A8FEF7AAFA08B1FDF7D9FB0220F0
:1044C00001908003039001A8FEF7E2F908B1FDF71F
:1044D000CFFBFEF7E7FB4FF47A71B0FBF1F4204617
:1044E000FFF7DAFA0420FFF7BDFA00221146501E4A
:1044F000FEF77BF914B010BD1148006840F00100D0
:104500000F490860084640680E4908400C49486059
:10451000084600680C4908400949086008460068D8
:1045200020F4802008600846406820F4FE004860BF
:104530004FF41F008860C8030449086070470000FA
:10454000001002400000FFF8FFFFF6FE08ED00E05B
:1045500010B504462068C06820F040002168C8609B
:1045600094F83900322803D1222084F8390002E07F
:10457000012084F839002046FFF7EEFB002010BD33
:1045800070B50446002520684068C6B20B49206813
:10459000884201D101250AE009492068884201D1F9
:1045A000022504E007492068884200D103251DB197
:1045B00031462846FBF7BCFE002070BD00380140A4
:1045C00000440040004800402DE9F0410446002529
:1045D0002068006920F44050E168084321680861C0
:1045E0002169A0680843616940EA01052068C06844
:1045F00041F20C61884328432168C8602068406903
:1046000020F44070A1690843216848615F4920682F
:1046100088425CD1FEF762FB00EBC00101EB0010A9
:1046200061688900B0FBF1F6FEF758FB00EBC001B2
:1046300001EB001061688900B0FBF1F06421B0FB70
:10464000F1F000EBC00101EB0010A6EB800032217D
:1046500001EB00106421B0FBF1F000F0F006FEF772
:104660003DFB00EBC00101EB001061688900B0FB6D
:10467000F1F06421B0FBF1F006EB0016FEF72EFB23
:1046800000EBC00101EB001061688900B0FBF1F79D
:10469000FEF724FB00EBC00101EB0010616889000C
:1046A000B0FBF1F06421B0FBF1F000EBC00101EBD5
:1046B0000010A7EB8000322101EB00106421B0FB59
:1046C000F1F000F00F003044216888605BE0FEF7F5
:1046D000EFFA00EBC00101EB001061688900B0FB4C
:1046E000F1F6FEF7E5FA00EBC00101EB001061689E
:1046F0008900B0FBF1F06421B0FBF1F000EBC001E8
:1047000001EB0010A6EB8000322101EB00106421C8
:10471000B0FBF1F000F0F006FEF7CAFA00EBC001C2
:1047200001EB001061688900B0FBF1F06421B0FB7F
:10473000F1F006EB0016FEF7BBFA00EBC00101EB4F
:10474000001061688900B0FBF1F7FEF7B1FA00EBE9
:10475000C00101EB001061688900B0FBF1F0642139
:10476000B0FBF1F000EBC00101EB0010A7EB800003
:10477000322101EB00106421B0FBF1F000F00F00DA
:10478000304421688860BDE8F081000000380140B5
:1047900070B5044600261F492068884204D10220D3
:1047A000FBF7E8FD002070BD94F83960122E01D0AF
:1047B000322E2CD1A068B0F5805F0FD1256A2888F1
:1047C000C0F3080021684860206918B9206A801C7D
:1047D000206209E0206A401C206205E0216A481C32
:1047E0002062087821684860E08C401E80B2E08436
:1047F00058B92068C06820F080002168C86020682F
:10480000C06840F040002168C8600020CBE702206B
:10481000C9E700000044004010B50248FFF75BF90B
:1048200010BD00002001002010B50248FFF753F929
:1048300010BD00006001002010B50248FFF74BF9E1
:1048400010BD0000A001002070B505460C461646BC
:10485000022D01D0032D03D131462046FCF7E0FBA9
:10486000012D13D10CE02078134909684860641CBD
:1048700000BF114800680068C0F3C0100028F8D0DD
:104880003000A6F101018EB2EDD114E0032D12D15A
:104890000CE02078094909684860641C00BF07489B
:1048A00000680068C0F3C0100028F8D03000A6F1FE
:1048B00001018EB2EDD170BD20010020A0010020C9
:1048C00000BFFEE710B51448FBF7F8FC12481030A3
:1048D000FBF7F4FC10482030FBF7F0FC20200E49D9
:1048E000C8600E48086080210B48C1610C480A4925
:1048F000086120210848C1620A48074908620A483D
:10490000FBF7DCFC4FF480700749C860074808607B
:10491000FFF7A0FC10BD0000101400205014002070
:1049200070150020F01500204014002070140020A5
:1049300008B51848007858B300201649087004E0FC
:104940009DF800100220FFF7F9FB69461248FBF7BB
:10495000BBFC0028F4D103E09DF80000FCF794FDB7
:1049600069460D481030FBF7AFFC0028F4D104E095
:104970009DF800100120FFF7E1FB69460648203052
:10498000FBF7A2FC0028F3D1FCF76AFBFFF7E8F97C
:1049900008BD0000900000201014002010B542F265
:1049A0001074FDF7EDF90520FDF776F905E00A2012
:1049B000FDF7D9F9641E04B910BDFDF768F900F0E0
:1049C000010008B1002CF2D1FDF7C9F900BFF3E7EF
:1049D00010B5FDF7D5F90620FDF75EF9FDF7BFF933
:1049E00010BD10B50446FDF7CBF90120FDF754F9D1
:1049F0002046FDF751F9FDF7B2F9FFF7CFFF10BDE3
:104A00000FB4084B10B504A902AA039800F01CF8D3
:104A1000044602A9002000F048FA204610BC5DF8C8
:104A200014FB0000AB4E000802E008C8121F08C1CA
:104A3000002AFAD170477047002001E001C1121F1F
:104A4000002AFBD1704700002DE9FF4F8DB00F46C3
:104A50000546002606E025280BD0DDE90F12904719
:104A60006D1C761C28780028F5D111B03046BDE8C1
:104A7000F08F0024A246A1460122EC4900E0044345
:104A800015F8013F203B02FA03F00842F7D12878DD
:104A90002A2810D06FF02F022878A0F130010929C0
:104AA00014D80AEB8A0102EB410144F0020400EB46
:104AB000010A6D1CF0E701CF5FEA000A03D544F458
:104AC0000054CAF1000A44F002046D1C28782E2814
:104AD00017D115F8010F44F004042A280ED06FF006
:104AE0002F022878A0F1300109290AD809EB8901A1
:104AF00002EB410100EB01096D1CF2E757F8049B42
:104B00006D1C28786C280FD006DC4C2817D068283C
:104B10000DD06A2814D104E0742810D07A280FD15F
:104B20000DE044F400140AE044F4801401E044F47D
:104B300040146978814202D104F580146D1C6D1C0B
:104B40002A786E2A1FD00CDC632A31D004DC002ABC
:104B50008BD0582A11D1A3E0642A68D0692A0CD1DD
:104B600065E0732A2ED004DC6F2A73D0702A04D13A
:104B70009BE0752A6FD0782A6ED01046DDE90F12BF
:104B80009047761C50E1C4F30250022806D0032857
:104B900009D0042801CF09D0066045E101CFF11703
:104BA000C0E9006140E101CF06803DE106703BE1D4
:104BB00017F8040B8DF8000000208DF80100EB467B
:104BC000012003E057F804BB4FF0FF3061074FF0BE
:104BD000000102D40DE008F10101884649450FDAD1
:104BE0008045F8DB1BF808100029F4D108E008F133
:104BF000010188468142FADB1BF808100029F6D132
:104C0000DDE90F23AAEB08008146214600F036F9C2
:104C1000304400EB080604E0DDE90F121BF8010B3D
:104C20009047B8F10108F7D221464846F7E00A213B
:104C3000C4F302534FF0000B0891022B04D001CFB4
:104C4000C117032B09D00AE0FF1D27F00707F7E87B
:104C5000020108E032E01FE020E000B2C117042B9F
:104C600001D140B2C117031E71F1000307DA4FF002
:104C7000000CD0EB0C006CEB01012D2302E02305AE
:104C800004D52B238DF82430012303E0E30701D062
:104C90002023F7E7984658E00A2110E010210EE0A3
:104CA00010204FF0000B08900CE010214FF0000B8B
:104CB00044F004044FF00809089103E008214FF084
:104CC000000B0891C4F30253022B04D001CF002142
:104CD000032B06D006E0FF1D27F00707F7E80201C7
:104CE00003E080B2042B00D1C0B24FF000082307CC
:104CF0002BD5702A07D0DDF820C08CF0100C5CEAB0
:104D00000B0C05D00EE040238DF82430012308E081
:104D100050EA010306D030238DF824308DF8252089
:104D200002239846DDF820C08CF0080C5CEA0B0CDE
:104D30000BD150EA010301D1630706D530238DF86A
:104D400024304FF00108A9F10109582A04D038A2F3
:104D50000B9208AA0A920BE03AA2F9E75B46089A7E
:104D6000FBF731FA0B9B9B5C0A9A521E0A92137056
:104D700050EA0102F2D10A98ADEB000000F1200BDD
:104D8000600702D524F4803401E04FF00109D945D1
:104D900002DDA9EB0B0000E0002000EB0B01414419
:104DA0000890AAEB010AE00306D4DDE90F232146AF
:104DB000504600F063F806444FF0000908E009A9E6
:104DC00011F80900DDE90F12904709F10109761C7D
:104DD000C145F4DBE0030CD5DDE90F232146504645
:104DE00000F04CF8064404E0DDE90F123020904753
:104DF000761C0899481E08900029F5DC08E00A98FE
:104E00000A990078491C0A91DDE90F129047761C37
:104E1000BBF10001ABF1010BF1DC21465046DDE9AD
:104E20000F2300F019F806446D1C1BE60928010049
:104E30003031323334353637383961626364656610
:104E400000000000303132333435363738394142D2
:104E500043444546000000002DE9F041044600258A
:104E60001E461746880404D405E039462020B04782
:104E70006D1C641EF9D52846BDE8F0812DE9F0418E
:104E8000044600251E469046C80301D5302700E0A1
:104E90002027880404D505E041463846B0476D1CFC
:104EA000641EF9D52846BDE8F0810A68531C0B60E2
:104EB00010707047FDF720FCFFF7DAFAFFF734F8BF
:104EC000FFF708F8FFF7C4F8FFF7E4F8FFF7FEF87C
:104ED000FFF718F9FFF7F6FCFCF78EFB0320FCF751
:104EE00042FF102104A0FCF79BF8FFF7D5F901E081
:104EF000FFF71EFDFCE700000D0A0D0A7379732011
:104F000073746172742E0D0A000000000100050028
:104F10000000000000000001020304060708090069
:104F20000000000102030400484F000800000020B8
:104F300098000000284A0008E04F00089800002070
:104F400078190000384A0008000000000000000046
:104F50000000000000000000000000000000000051
:104F60000000000000000000000000000000000041
:104F70000000000000000000000000000000000031
:104F80000000000000000000000000000000000021
:104F90000000000000000000000000000000000011
:104FA000000000000000000000000000434D4E45DE
:104FB000540000000000000000000000000000009D
:104FC0000000000000000000000073EC21A41F623C
:104FD00000000000000000000000000000A24A04E1
:04000005080000ED02
:00000001FF
